S014000054494D45525F4472697665722E73726563C4
S11300000C942A000C9434000C9434000C943400A6
S11300100C9434000C9434000C9434000C9434008C
S11300200C9434000C9434000C9434000C9434007C
S11300300C9434000C9434000C9434000C9434006C
S11300400C9434000C9434000C9434000C9434005C
S11300500C94340011241FBECFE5D8E0DEBFCDBF21
S11300600E9436000C9412030C9400008AB3816041
S11300708ABB8BB381608BBB60E070E080E89FE358
S11300800E944C008BB38E7F8BBB60E070E080E8F5
S11300909FE30E944C00EDCF4F925F926F927F924C
S11300A08F929F92AF92BF92CF92DF92EF92FF9284
S11300B06B017C012DEB37E346E859E30E94F20122
S11300C08823F4F413BEA70196016DEB77E386E869
S11300D099E30E9485012DEB37E346E855E30E943E
S11300E0F7010E94690262BF83B7816083BF08B6CB
S11300F000FEFDCF88B7816088BF13BE80E0F8C0E2
S11301002DEB37E346E05BE3C701B6010E94F20141
S11301108823F4F413BEA70196016DEB77E386E020
S11301209BE30E9485012DEB37E346E057E30E94F1
S1130130F7010E94690262BF83B7826083BF08B679
S113014000FEFDCF88B7816088BF13BE80E0D0C0B9
S11301502DEB37E346E85CE3C701B6010E94F201E8
S113016088230CF513BEA70196016DEB77E386E8AF
S11301709CE30E9485012DEB37E346E858E30E9497
S1130180F7010E94690262BF83B7816083BF83B7AE
S1130190826083BF08B600FEFDCF88B7816088BF48
S11301A013BE80E0A5C02DEB37E346E85DE3C7014D
S11301B0B6010E94F2018823F4F413BEA70196014C
S11301C06DEB77E386E89DE30E9485012DEB37E331
S11301D046E859E30E94F7010E94690262BF83B7AF
S11301E0846083BF08B600FEFDCF88B7816088BFF6
S11301F013BE80E07DC02DEB37E346E85EE3C70124
S1130200B6010E94F20188230CF513BEA7019601E2
S11302106DEB77E386E89EE30E9485012DEB37E3DF
S113022046E85AE30E94F7010E94690262BF83B75D
S1130230816083BF83B7846083BF08B600FEFDCFAF
S113024088B7816088BF13BE80E052C02DEB37E3CE
S113025046E85EE3C701B6010E940D0318160CF0D0
S113026046C02DEB37E346E85EE3C701B6010E94C2
S1130270F7012B013C0120E030E040E85FE30E94FD
S113028086010E9469024B015C0129C013BE2DEB5B
S113029037E346E85AE3C701B6010E94F701A30118
S11302A092010E94F7019B01AC0160E070E080E8DC
S11302B093E40E9485010E94690262BF83B7816052
S11302C083BF83B7846083BF08B600FEFDCF88B7C1
S11302D0816088BF81E0881A9108A108B10881145F
S11302E09104A104B10491F613BE80E001C081E041
S11302F0FF90EF90DF90CF90BF90AF909F908F9042
S11303007F906F905F904F9008955058BB27AA2715
S11303100E949D010C94D3020E94C50238F00E94F1
S1130320CC0220F039F49F3F19F426F40C94C20255
S11303300EF4E095E7FB0C94BC02E92F0E94E40262
S113034058F3BA17620773078407950720F079F406
S1130350A6F50C9406030EF4E0950B2EBA2FA02DEF
S11303600B01B90190010C01CA01A0011124FF275E
S1130370591B99F0593F50F4503E68F11A16F04059
S1130380A22F232F342F4427585FF3CF4695379558
S11303902795A795F0405395C9F77EF41F16BA0B1D
S11303A0620B730B840BBAF09150A1F0FF0FBB1FCB
S11303B0661F771F881FC2F70EC0BA0F621F731F14
S11303C0841F48F4879577956795B795F7959E3F71
S11303D008F0B0CF9395880F08F09927EE0F979502
S11303E0879508950E94980208F481E008950E9478
S11303F00B020C94D3020E94CC0258F00E94C50256
S113040040F029F45F3F29F00C94BC0251110C9484
S113041007030C94C2020E94E40268F39923B1F327
S1130420552391F3951B550BBB27AA276217730716
S1130430840738F09F5F5F4F220F331F441FAA1FAA
S1130440A9F335D00E2E3AF0E0E832D09150504066
S1130450E695001CCAF72BD0FE2F29D0660F771F14
S1130460881FBB1F261737074807AB07B0E809F0FA
S1130470BB0B802DBF01FF2793585F4F3AF09E3F7F
S1130480510578F00C94BC020C9407035F3FE4F32D
S1130490983ED4F3869577956795B795F7959F5FC2
S11304A0C9F7880F911D9695879597F90895E1E00E
S11304B0660F771F881FBB1F621773078407BA076D
S11304C020F0621B730B840BBA0BEE1F88F7E095C8
S11304D008950E94EC0288F09F5798F0B92F99274D
S11304E0B751B0F0E1F0660F771F881F991F1AF01B
S11304F0BA95C9F714C0B13091F00E940603B1E077
S113050008950C940603672F782F8827B85F39F075
S1130510B93FCCF3869577956795B395D9F73EF4B3
S113052090958095709561957F4F8F4F9F4F08955B
S1130530990F0008550FAA0BE0E8FEEF16161706F0
S1130540E807F907C0F012161306E407F50798F058
S1130550621B730B840B950B39F40A2661F0232B71
S1130560242B252B21F408950A2609F4A140A695ED
S11305708FEF811D811D089597F99F6780E870E0D2
S113058060E008959FEF80EC089500240A94161605
S1130590170618060906089500240A94121613066D
S11305A0140605060895092E0394000C11F48823FB
S11305B052F0BB0F40F4BF2B11F460FF04C06F5F17
S11305C07F4F8F4F9F4F089557FD9058440F551FED
S11305D059F05F3F71F04795880F97FB991F61F0C1
S11305E09F3F79F087950895121613061406551F38
S11305F0F2CF4695F1DF08C0161617061806991FA4
S1130600F1CF86957105610508940895E894BB2798
S113061066277727CB0197F908950E94980208F47A
S10B06208FEF0895F894FFCF59
S9030000FC
