:100000000C942A000C9434000C9434000C943400AA
:100010000C9434000C9434000C9434000C94340090
:100020000C9434000C9434000C9434000C94340080
:100030000C9434000C9434000C9434000C94340070
:100040000C9434000C9434000C9434000C94340060
:100050000C94340011241FBECFE5D8E0DEBFCDBF25
:100060000E9467000C94D6010C9400001F93CF935C
:10007000DF93C82FD62F142F40E00E94A9008111D2
:1000800008C0412F6D2F8C2F0E942701811103C0C2
:1000900003C081E001C081E0DF91CF911F910895FD
:1000A0000E94A501811182E0089541E00E94A9000B
:1000B000811181E0089541E00E942701811182E0D1
:1000C000089540E00E942701811182E00895CF93B6
:1000D000DF931F92CDB7DEB760E080E00E9455004D
:1000E000811131C041E060E081E00E943600811161
:1000F0002AC0AE014F5F5F4F60E081E00E94500078
:100100008111F7CF89818111F4CF60E00E945B00FB
:10011000811109C02FE38DE093E021508040904091
:10012000E1F700C0000060E080E00E946100811102
:10013000E0CF2FE38DE093E0215080409040E1F745
:1001400000C00000D6CF80E090E00F90DF91CF910B
:10015000089541113CC0813099F028F08230E9F0D7
:10016000833041F16EC02AB381E090E002C0880F75
:10017000991F6A95E2F7809582238ABB80E00895F3
:1001800027B381E090E002C0880F991F6A95E2F7DB
:100190008095822387BB80E0089524B381E090E0BE
:1001A00002C0880F991F6A95E2F78095822384BB6D
:1001B00080E0089521B381E090E002C0880F991F8C
:1001C0006A95E2F78095822381BB80E008954130F3
:1001D000D1F5813091F028F08230D9F0833029F1C7
:1001E00034C02AB381E090E002C0880F991F6A955D
:1001F000E2F7822B8ABB80E0089527B381E090E08C
:1002000002C0880F991F6A95E2F7822B87BB80E0B6
:10021000089524B381E090E002C0880F991F6A9589
:10022000E2F7822B84BB80E0089521B381E090E067
:1002300002C0880F991F6A95E2F7822B81BB80E08C
:10024000089580E0089581E0089580E008954111C7
:100250003CC0813099F028F08230E9F0833041F1E0
:100260006EC02BB381E090E002C0880F991F6A95A1
:10027000E2F7809582238BBB80E0089528B381E06C
:1002800090E002C0880F991F6A95E2F7809582235B
:1002900088BB80E0089525B381E090E002C0880F1C
:1002A000991F6A95E2F78095822385BB80E00895C7
:1002B00022B381E090E002C0880F991F6A95E2F7AF
:1002C0008095822382BB80E008954130D1F5813052
:1002D00091F028F08230D9F0833029F134C02BB36B
:1002E00081E090E002C0880F991F6A95E2F7822BA7
:1002F0008BBB80E0089528B381E090E002C0880FB6
:10030000991F6A95E2F7822B88BB80E0089525B398
:1003100081E090E002C0880F991F6A95E2F7822B76
:1003200085BB80E0089522B381E090E002C0880F91
:10033000991F6A95E2F7822B82BB80E0089580E0E6
:10034000089582E0089580E00895813079F028F0E2
:100350008230A9F08330E1F027C089B390E002C079
:10036000959587956A95E2F781701AC086B390E0FB
:1003700002C0959587956A95E2F7817011C083B3A5
:1003800090E002C0959587956A95E2F7817008C064
:1003900080B390E002C0959587956A95E2F78170E9
:1003A000FA01808380E0089585E00895F894FFCFF6
:00000001FF
