S0150000455543414C5F447269766572732E7372656367
S11300000C942A000C9434000C9434000C943400A6
S11300100C9434000C9434000C9434000C9434008C
S11300200C9434000C9434000C9434000C9434007C
S11300300C9434000C9434000C9434000C9434006C
S11300400C9434000C9434000C9434000C9434005C
S11300500C94340011241FBECFE5D8E0DEBFCDBF21
S11300600E9441000C9412010C94000041E00E9493
S11300705A00811181E008950E94D800811184E022
S1130080089560E080E00E943600811110C060E0B5
S113009080E00E943C008111FACF2FE986E891E0CC
S11300A0215080409040E1F700C00000F0CF80E094
S11300B090E0089541113CC0813099F028F08230DD
S11300C0E9F0833041F16EC02AB381E090E002C0D0
S11300D0880F991F6A95E2F7809582238ABB80E096
S11300E0089527B381E090E002C0880F991F6A95B4
S11300F0E2F78095822387BB80E0089524B381E0F2
S113010090E002C0880F991F6A95E2F780958223D8
S113011084BB80E0089521B381E090E002C0880FA1
S1130120991F6A95E2F78095822381BB80E0089548
S11301304130D1F5813091F028F08230D9F083300C
S113014029F134C02BB381E090E002C0880F991FDD
S11301506A95E2F7822B8BBB80E0089528B381E097
S113016090E002C0880F991F6A95E2F7822B88BB42
S113017080E0089525B381E090E002C0880F991FC4
S11301806A95E2F7822B85BB80E0089522B381E073
S113019090E002C0880F991F6A95E2F7822B82BB18
S11301A080E0089580E0089581E0089580E0089556
S11301B0813091F028F08230D9F0833029F130C0B9
S11301C02BB381E090E002C0880F991F6A95E2F793
S11301D082278BBB80E0089528B381E090E002C0C1
S11301E0880F991F6A95E2F7822788BB80E00895FB
S11301F025B381E090E002C0880F991F6A95E2F769
S1130200822785BB80E0089522B381E090E002C09C
S1130210880F991F6A95E2F7822782BB80E00895D0
S10B022083E00895F894FFCF78
S9030000FC
