S012000044494F5F4452495645522E737265630B
S11300000C942A000C9434000C9434000C943400A6
S11300100C9434000C9434000C9434000C9434008C
S11300200C9434000C9434000C9434000C9434007C
S11300300C9434000C9434000C9434000C9434006C
S11300400C9434000C9434000C9434000C9434005C
S11300500C94340011241FBECFE5D8E0DEBFCDBF21
S11300600E946C010C9491010C94000041113CC05D
S1130070813099F028F08230E9F0833041F16EC08C
S11300802AB381E090E002C0880F991F6A95E2F7D5
S1130090809582238ABB80E0089527B381E090E0B5
S11300A002C0880F991F6A95E2F78095822387BB67
S11300B080E0089524B381E090E002C0880F991F86
S11300C06A95E2F78095822384BB80E0089521B38A
S11300D081E090E002C0880F991F6A95E2F780954D
S11300E0822381BB80E008954130D1F5813091F0C5
S11300F028F08230D9F0833029F134C02AB381E06A
S113010090E002C0880F991F6A95E2F7822B8ABBA0
S113011080E0089527B381E090E002C0880F991F22
S11301206A95E2F7822B87BB80E0089524B381E0CF
S113013090E002C0880F991F6A95E2F7822B84BB76
S113014080E0089521B381E090E002C0880F991FF8
S11301506A95E2F7822B81BB80E0089580E00895E0
S113016081E0089580E0089541113CC0813099F008
S113017028F08230E9F0833041F16EC02BB381E086
S113018090E002C0880F991F6A95E2F78095822358
S11301908BBB80E0089528B381E090E002C0880F13
S11301A0991F6A95E2F78095822388BB80E00895C1
S11301B025B381E090E002C0880F991F6A95E2F7A9
S11301C08095822385BB80E0089522B381E090E08E
S11301D002C0880F991F6A95E2F78095822382BB3B
S11301E080E008954130D1F5813091F028F08230DB
S11301F0D9F0833029F134C02BB381E090E002C000
S1130200880F991F6A95E2F7822B8BBB80E00895D3
S113021028B381E090E002C0880F991F6A95E2F745
S1130220822B88BB80E0089525B381E090E002C072
S1130230880F991F6A95E2F7822B85BB80E00895A9
S113024022B381E090E002C0880F991F6A95E2F71B
S1130250822B82BB80E0089580E0089582E00895B7
S113026080E00895813091F028F08230D9F0833015
S113027029F130C02BB381E090E002C0880F991FB0
S11302806A95E2F782278BBB80E0089528B381E06A
S113029090E002C0880F991F6A95E2F7822788BB15
S11302A080E0089525B381E090E002C0880F991F93
S11302B06A95E2F7822785BB80E0089522B381E046
S11302C090E002C0880F991F6A95E2F7822782BBEB
S11302D080E0089583E0089541E060E080E00E94BA
S11302E03600811104C041E060E00E94B40041E0A6
S11302F060E081E00E943600811105C040E060E0CA
S113030081E00E94B40040E060E082E00E94360098
S1130310811104C060E082E00E94320180E090E03C
S10903200895F894FFCFDC
S9030000FC
