S01C00004F6E44656D616E64547261666669634C696768742E737265634B
S11300000C942A000C945A040C943C000C943C006C
S11300100C943C000C943C000C943C000C943C006C
S11300200C943C000C943C000C943C000C943C005C
S11300300C943C000C943C000C943C000C943C004C
S11300400C943C000C943C000C943C000C943C003C
S11300500C943C0011241FBECFE5D8E0DEBFCDBF19
S113006020E0A0E6B0E001C01D92A236B207E1F79D
S11300700E94C2020C9443070C9400000E944004A6
S113008081110EC082E192E00E94530440E062E0DC
S113009083E00E945602811103C00E945100FDCFEB
S11300A00895EF92FF920F931F9360E080E00E9407
S11300B07002811148C061E00E947002811143C046
S11300C062E00E94700281113EC060E00E947602EC
S11300D0811139C060E070E080EA90E40E948304FA
S11300E0811131C060E00E947C0281112CC0E12C9E
S11300F0F12C00E01FE32AE030E040E050E061E052
S11301000E94870281111FC061E00E947C0281115C
S11301101AC062E00E947602811115C060E070E0AE
S113012080EA90E40E94830481110DC060E00E9483
S11301307C02811108C061E00E947C02811103C02D
S113014062E00E947C021F910F91FF90EF9008954E
S1130150CF9362E080E00E947C02811172C062E071
S11301600E94760281116FC060E081E00E947602F5
S113017081116BC060E070E080EA90E40E94830427
S1130180811165C062E00E947C028823B1F081E0A5
S113019079C061E080E00E94820281115AC061E06E
S11301A081E00E948202811156C060E070E080E02C
S11301B09FE30E948304C15001C0CAE0C111E9CF8A
S11301C060E080E00E947C02811147C061E00E94EF
S11301D07C02811144C062E00E947C02811141C012
S11301E060E081E00E947C0281113DC061E081E019
S11301F00E947C02811139C062E081E00E947C028D
S1130200811135C060E00E947602811132C062E043
S113021081E00E94760281112EC060E070E080E0EF
S113022090E40E948304811128C060E00E947C0253
S1130230811125C062E081E00E947C02811121C00D
S113024021C081E01FC081E01DC081E01BC081E0AE
S113025019C081E017C081E015C081E013C081E0BE
S113026011C081E00FC081E00DC081E00BC081E0CE
S113027009C081E007C081E005C081E003C081E0DE
S113028001C081E0CF910895CF9360E080E00E94A7
S11302907C0281119CC061E00E947C028823B1F041
S11302A082E0BEC061E080E00E948202811191C0C0
S11302B061E081E00E94820281118DC060E070E003
S11302C080E09FE30E948304C15001C0CAE0C111D1
S11302D0E9CF61E080E00E947C0281117EC061E090
S11302E081E00E947C0281117AC062E00E94760261
S11302F0811177C060E081E00E947602811173C0B1
S113030060E070E080EA90E40E94830481116DC093
S113031062E00E947C028823B1F082E081C061E047
S113032080E00E948202811162C061E081E00E944B
S1130330820281115EC060E070E080E09FE30E9471
S11303408304C15001C0CAE0C111E9CF60E080E07C
S11303500E947C0281114FC061E00E947C028111E5
S11303604CC062E00E947C02811149C060E081E0DF
S11303700E947C02811145C061E081E00E947C0200
S1130380811141C062E081E00E947C0281113DC084
S113039060E00E94760281113AC062E081E00E942E
S11303A07602811136C060E070E080E090E40E9443
S11303B08304811130C060E00E947C0281112DC051
S11303C062E081E00E947C02811129C029C082E0A0
S11303D027C082E025C082E023C082E021C082E001
S11303E01FC082E01DC082E01BC082E019C082E011
S11303F017C082E015C082E013C082E011C082E021
S11304000FC082E00DC082E00BC082E009C082E030
S113041007C082E005C082E003C082E001C082E040
S1130420CF910895CF93DF9300D01F92CDB7DEB75D
S113043060E081E00E947002811132C061E081E0DD
S11304400E94700281112CC062E081E00E9470025F
S1130450811126C0AE014F5F5F4F60E00E94FD0333
S113046081111EC0AE014E5F5F4F61E00E94FD032B
S1130470811116C0AE014D5F5F4F62E00E94FD0323
S113048081110EC08B81813019F40E94A80008C02C
S11304908981813019F08A81813011F40E944401EC
S11304A00F900F900F90DF91CF9108951F93CF93EA
S11304B0DF93C82FD62F142F40E00E94C70281116A
S11304C008C0412F6D2F8C2F0E944503811103C05A
S11304D003C081E001C081E0DF91CF911F910895B5
S11304E041E00E94C702811181E0089541E00E9429
S11304F04503811182E0089540E00E944503811183
S113050082E008950E94C303811184E008958F92CC
S11305109F92AF92BF92CF92DF92EF92FF920F938E
S11305201F93CF93DF93D82FC62F49015A01670138
S1130530780111C06C2F8D2F0E948202811112C08C
S1130540C701B6010E94830481110EC081E0881A9C
S11305509108A108B10881149104A104B10451F7D0
S113056080E003C085E001C085E0DF91CF911F9159
S11305700F91FF90EF90DF90CF90BF90AF909F903E
S11305808F9008950E943E0080E090E0089541110C
S11305903CC0813099F028F08230E9F0833041F199
S11305A06EC02AB381E090E002C0880F991F6A955B
S11305B0E2F7809582238ABB80E0089527B381E027
S11305C090E002C0880F991F6A95E2F78095822314
S11305D087BB80E0089524B381E090E002C0880FD7
S11305E0991F6A95E2F78095822384BB80E0089581
S11305F021B381E090E002C0880F991F6A95E2F769
S11306008095822381BB80E008954130D1F581300B
S113061091F028F08230D9F0833029F134C02AB324
S113062081E090E002C0880F991F6A95E2F7822B5F
S11306308ABB80E0089527B381E090E002C0880F70
S1130640991F6A95E2F7822B87BB80E0089524B353
S113065081E090E002C0880F991F6A95E2F7822B2F
S113066084BB80E0089521B381E090E002C0880F4C
S1130670991F6A95E2F7822B81BB80E0089580E0A0
S1130680089581E0089580E0089541113CC08130CF
S113069099F028F08230E9F0833041F16EC02BB339
S11306A081E090E002C0880F991F6A95E2F7809577
S11306B082238BBB80E0089528B381E090E002C0E0
S11306C0880F991F6A95E2F78095822388BB80E0A2
S11306D0089525B381E090E002C0880F991F6A95C0
S11306E0E2F78095822385BB80E0089522B381E000
S11306F090E002C0880F991F6A95E2F780958223E3
S113070082BB80E008954130D1F5813091F028F02A
S11307108230D9F0833029F134C02BB381E090E0EA
S113072002C0880F991F6A95E2F7822B8BBB80E089
S1130730089528B381E090E002C0880F991F6A955C
S1130740E2F7822B88BB80E0089525B381E090E036
S113075002C0880F991F6A95E2F7822B85BB80E05F
S1130760089522B381E090E002C0880F991F6A9532
S1130770E2F7822B82BB80E0089580E0089582E056
S1130780089580E00895813091F028F08230D9F006
S1130790833029F130C02BB381E090E002C0880F90
S11307A0991F6A95E2F782278BBB80E0089528B3EE
S11307B081E090E002C0880F991F6A95E2F78227D2
S11307C088BB80E0089525B381E090E002C0880FE3
S11307D0991F6A95E2F7822785BB80E0089522B3CA
S11307E081E090E002C0880F991F6A95E2F78227A2
S11307F082BB80E0089583E00895813079F028F089
S11308008230A9F08330E1F027C089B390E002C0C0
S1130810959587956A95E2F781701AC086B390E042
S113082002C0959587956A95E2F7817011C083B3EC
S113083090E002C0959587956A95E2F7817008C0AB
S113084080B390E002C0959587956A95E2F7817030
S1130850FA01808380E0089585E008958FB7806869
S11308608FBF80E0089585B7826085BF85B78160BA
S113087085BF80E008958BB780648BBF80E00895C6
S11308800E942E04811109C00E943304811107C003
S11308900E943B04811105C0089581E0089581E020
S11308A0089581E00895009721F09093610080936A
S11308B0600008951F920F920FB60F9211242F9388
S11308C03F934F935F936F937F938F939F93AF93D4
S11308D0BF93EF93FF93E0916000F0916100309734
S11308E009F00995FF91EF91BF91AF919F918F917D
S11308F07F916F915F914F913F912F910F900FBE18
S11309000F901F9018954F925F926F927F928F92E3
S11309109F92AF92BF92CF92DF92EF92FF926B01C0
S11309207C012DEB37E346E859E30E942306882334
S1130930ECF413BEA70196016DEB77E386E899E327
S11309400E94B6052DEB37E346E855E30E942806DE
S11309500E949A0662BF83B7816083BF08B600FE17
S1130960FDCF88B7816088BF80E0F3C02DEB37E30B
S113097046E05BE3C701B6010E9423068823ECF43A
S113098013BEA70196016DEB77E386E09BE30E941B
S1130990B6052DEB37E346E057E30E9428060E9494
S11309A09A0662BF83B7826083BF08B600FEFDCF9C
S11309B088B7816088BF80E0CCC02DEB37E346E880
S11309C05CE3C701B6010E942306882304F513BE25
S11309D0A70196016DEB77E386E89CE30E94B605D8
S11309E02DEB37E346E858E30E9428060E949A0656
S11309F062BF83B7816083BF83B7826083BF08B659
S1130A0000FEFDCF88B7816088BF80E0A2C02DEBD7
S1130A1037E346E85DE3C701B6010E942306882355
S1130A20ECF413BEA70196016DEB77E386E89DE332
S1130A300E94B6052DEB37E346E859E30E942806E9
S1130A400E949A0662BF83B7846083BF08B600FE23
S1130A50FDCF88B7816088BF80E07BC02DEB37E392
S1130A6046E85EE3C701B6010E942306882304F525
S1130A7013BEA70196016DEB77E386E89EE30E941F
S1130A80B6052DEB37E346E85AE30E9428060E9498
S1130A909A0662BF83B7816083BF83B7846083BFD4
S1130AA008B600FEFDCF88B7816088BF80E051C0E2
S1130AB02DEB37E346E85EE3C701B6010E943E072B
S1130AC018160CF045C02DEB37E346E85EE3C7018A
S1130AD0B6010E9428062B013C0120E030E040E8EA
S1130AE05FE30E94B7050E949A064B015C0129C08E
S1130AF013BE2DEB37E346E85AE3C701B6010E9463
S1130B002806A30192010E9428069B01AC0160E023
S1130B1070E080E893E40E94B6050E949A0662BFE2
S1130B2083B7816083BF83B7846083BF08B600FE48
S1130B30FDCF88B7816088BF81E0881A9108A10839
S1130B40B10881149104A104B10491F680E001C0BC
S1130B5081E0FF90EF90DF90CF90BF90AF909F9097
S1130B608F907F906F905F904F9008955058BB275F
S1130B70AA270E94CE050C9404070E94F60638F0BA
S1130B800E94FD0620F039F49F3F19F426F40C94DA
S1130B90F3060EF4E095E7FB0C94ED06E92F0E94B2
S1130BA0150758F3BA17620773078407950720F0EF
S1130BB079F4A6F50C9437070EF4E0950B2EBA2FB2
S1130BC0A02D0B01B90190010C01CA01A00111244F
S1130BD0FF27591B99F0593F50F4503E68F11A16FB
S1130BE0F040A22F232F342F4427585FF3CF46958C
S1130BF037952795A795F0405395C9F77EF41F16AE
S1130C00BA0B620B730B840BBAF09150A1F0FF0F77
S1130C10BB1F661F771F881FC2F70EC0BA0F621F63
S1130C20731F841F48F4879577956795B795F79553
S1130C309E3F08F0B0CF9395880F08F09927EE0FE8
S1130C409795879508950E94C90608F481E0089550
S1130C500E943C060C9404070E94FD0658F00E9472
S1130C60F60640F029F45F3F29F00C94ED0651118B
S1130C700C9438070C94F3060E94150768F3992323
S1130C80B1F3552391F3951B550BBB27AA27621784
S1130C907307840738F09F5F5F4F220F331F441F91
S1130CA0AA1FA9F335D00E2E3AF0E0E832D09150C5
S1130CB05040E695001CCAF72BD0FE2F29D0660FB2
S1130CC0771F881FBB1F261737074807AB07B0E8F5
S1130CD009F0BB0B802DBF01FF2793585F4F3AF0FB
S1130CE09E3F510578F00C94ED060C9438075F3F55
S1130CF0E4F3983ED4F3869577956795B795F79581
S1130D009F5FC9F7880F911D9695879597F9089568
S1130D10E1E0660F771F881FBB1F62177307840704
S1130D20BA0720F0621B730B840BBA0BEE1F88F713
S1130D30E09508950E941D0788F09F5798F0B92FF9
S1130D409927B751B0F0E1F0660F771F881F991FFC
S1130D501AF0BA95C9F714C0B13091F00E94370760
S1130D60B1E008950C943707672F782F8827B85F70
S1130D7039F0B93FCCF3869577956795B395D9F754
S1130D803EF490958095709561957F4F8F4F9F4F5E
S1130D900895990F0008550FAA0BE0E8FEEF161608
S1130DA01706E807F907C0F012161306E407F5075B
S1130DB098F0621B730B840B950B39F40A2661F0CF
S1130DC0232B242B252B21F408950A2609F4A14072
S1130DD0A6958FEF811D811D089597F99F6780E87F
S1130DE070E060E008959FEF80EC089500240A9479
S1130DF01616170618060906089500240A941216F2
S1130E001306140605060895092E0394000C11F424
S1130E10882352F0BB0F40F4BF2B11F460FF04C0D1
S1130E206F5F7F4F8F4F9F4F089557FD9058440F2A
S1130E30551F59F05F3F71F04795880F97FB991F35
S1130E4061F09F3F79F087950895121613061406F2
S1130E50551FF2CF4695F1DF08C01616170618067F
S1130E60991FF1CF86957105610508940895E8945A
S1130E70BB2766277727CB0197F908950E94C906F7
S10D0E8008F48FEF0895F894FFCFF3
S9030000FC
