:100000000C942A000C945A000C943C000C943C0074
:100010000C943C000C943C000C943C000C943C0070
:100020000C943C000C943C000C943C000C943C0060
:100030000C943C000C943C000C943C000C943C0050
:100040000C943C000C943C000C943C000C943C0040
:100050000C943C0011241FBECFE5D8E0DEBFCDBF1D
:1000600020E0A0E6B0E001C01D92A236B207E1F7A1
:100070000E9496000C94BC000C9400008FB780681E
:100080008FBF80E0089585B7826085BF85B78160A6
:1000900085BF80E008958BB780648BBF80E00895B2
:1000A000009731F0909361008093600080E00895A4
:1000B00081E008951F920F920FB60F9211242F9393
:1000C0003F934F935F936F937F938F939F93AF93E0
:1000D000BF93EF93FF93E0916000F0916100309740
:1000E00009F00995FF91EF91BF91AF919F918F9189
:1000F0007F916F915F914F913F912F910F900FBE24
:100100000F901F9018958AB381608ABB8BB3816072
:100110008BBB2FEB87E299E0215080409040E1F7C4
:1001200000C000008BB38E7F8BBB08950E943E0001
:100130000E944B000E94430083E890E00E94500020
:1001400087B3816087BB88B3816088BB2FE38DE074
:1001500093E0215080409040E1F700C0000088B358
:100160008E7F88BB2FE38DE093E02150804090404C
:0C017000E1F700C00000E7CFF894FFCFDB
:00000001FF
